{
    "_format": "hh-sol-artifact-1",
    "contractName": "MinorProj",
    "sourceName": "contracts/MinorProj.sol",
    "abi": [
        {
            "inputs": [],
            "stateMutability": "nonpayable",
            "type": "constructor"
        },
        {
            "anonymous": false,
            "inputs": [
                {
                    "indexed": true,
                    "internalType": "address",
                    "name": "account",
                    "type": "address"
                },
                {
                    "indexed": true,
                    "internalType": "address",
                    "name": "operator",
                    "type": "address"
                },
                {
                    "indexed": false,
                    "internalType": "bool",
                    "name": "approved",
                    "type": "bool"
                }
            ],
            "name": "ApprovalForAll",
            "type": "event"
        },
        {
            "anonymous": false,
            "inputs": [
                {
                    "indexed": true,
                    "internalType": "address",
                    "name": "operator",
                    "type": "address"
                },
                {
                    "indexed": true,
                    "internalType": "address",
                    "name": "from",
                    "type": "address"
                },
                {
                    "indexed": true,
                    "internalType": "address",
                    "name": "to",
                    "type": "address"
                },
                {
                    "indexed": false,
                    "internalType": "uint256[]",
                    "name": "ids",
                    "type": "uint256[]"
                },
                {
                    "indexed": false,
                    "internalType": "uint256[]",
                    "name": "values",
                    "type": "uint256[]"
                }
            ],
            "name": "TransferBatch",
            "type": "event"
        },
        {
            "anonymous": false,
            "inputs": [
                {
                    "indexed": true,
                    "internalType": "address",
                    "name": "operator",
                    "type": "address"
                },
                {
                    "indexed": true,
                    "internalType": "address",
                    "name": "from",
                    "type": "address"
                },
                {
                    "indexed": true,
                    "internalType": "address",
                    "name": "to",
                    "type": "address"
                },
                {
                    "indexed": false,
                    "internalType": "uint256",
                    "name": "id",
                    "type": "uint256"
                },
                {
                    "indexed": false,
                    "internalType": "uint256",
                    "name": "value",
                    "type": "uint256"
                }
            ],
            "name": "TransferSingle",
            "type": "event"
        },
        {
            "anonymous": false,
            "inputs": [
                {
                    "indexed": false,
                    "internalType": "string",
                    "name": "value",
                    "type": "string"
                },
                {
                    "indexed": true,
                    "internalType": "uint256",
                    "name": "id",
                    "type": "uint256"
                }
            ],
            "name": "URI",
            "type": "event"
        },
        {
            "inputs": [
                {
                    "internalType": "uint8",
                    "name": "_studentId",
                    "type": "uint8"
                },
                {
                    "internalType": "address",
                    "name": "_studentAddress",
                    "type": "address"
                },
                {
                    "internalType": "string",
                    "name": "_studentName",
                    "type": "string"
                }
            ],
            "name": "addStudent",
            "outputs": [],
            "stateMutability": "nonpayable",
            "type": "function"
        },
        {
            "inputs": [
                {
                    "internalType": "address",
                    "name": "account",
                    "type": "address"
                },
                {
                    "internalType": "uint256",
                    "name": "id",
                    "type": "uint256"
                }
            ],
            "name": "balanceOf",
            "outputs": [
                {
                    "internalType": "uint256",
                    "name": "",
                    "type": "uint256"
                }
            ],
            "stateMutability": "view",
            "type": "function"
        },
        {
            "inputs": [
                {
                    "internalType": "address[]",
                    "name": "accounts",
                    "type": "address[]"
                },
                {
                    "internalType": "uint256[]",
                    "name": "ids",
                    "type": "uint256[]"
                }
            ],
            "name": "balanceOfBatch",
            "outputs": [
                {
                    "internalType": "uint256[]",
                    "name": "",
                    "type": "uint256[]"
                }
            ],
            "stateMutability": "view",
            "type": "function"
        },
        {
            "inputs": [
                {
                    "internalType": "address",
                    "name": "account",
                    "type": "address"
                },
                {
                    "internalType": "address",
                    "name": "operator",
                    "type": "address"
                }
            ],
            "name": "isApprovedForAll",
            "outputs": [
                {
                    "internalType": "bool",
                    "name": "",
                    "type": "bool"
                }
            ],
            "stateMutability": "view",
            "type": "function"
        },
        {
            "inputs": [
                {
                    "internalType": "address",
                    "name": "_studentAddress",
                    "type": "address"
                },
                {
                    "internalType": "string",
                    "name": "_tokenURI",
                    "type": "string"
                }
            ],
            "name": "mintStudentToken",
            "outputs": [],
            "stateMutability": "nonpayable",
            "type": "function"
        },
        {
            "inputs": [
                {
                    "internalType": "address",
                    "name": "from",
                    "type": "address"
                },
                {
                    "internalType": "address",
                    "name": "to",
                    "type": "address"
                },
                {
                    "internalType": "uint256[]",
                    "name": "ids",
                    "type": "uint256[]"
                },
                {
                    "internalType": "uint256[]",
                    "name": "amounts",
                    "type": "uint256[]"
                },
                {
                    "internalType": "bytes",
                    "name": "data",
                    "type": "bytes"
                }
            ],
            "name": "safeBatchTransferFrom",
            "outputs": [],
            "stateMutability": "nonpayable",
            "type": "function"
        },
        {
            "inputs": [
                {
                    "internalType": "address",
                    "name": "from",
                    "type": "address"
                },
                {
                    "internalType": "address",
                    "name": "to",
                    "type": "address"
                },
                {
                    "internalType": "uint256",
                    "name": "id",
                    "type": "uint256"
                },
                {
                    "internalType": "uint256",
                    "name": "amount",
                    "type": "uint256"
                },
                {
                    "internalType": "bytes",
                    "name": "data",
                    "type": "bytes"
                }
            ],
            "name": "safeTransferFrom",
            "outputs": [],
            "stateMutability": "nonpayable",
            "type": "function"
        },
        {
            "inputs": [
                {
                    "internalType": "address",
                    "name": "operator",
                    "type": "address"
                },
                {
                    "internalType": "bool",
                    "name": "approved",
                    "type": "bool"
                }
            ],
            "name": "setApprovalForAll",
            "outputs": [],
            "stateMutability": "nonpayable",
            "type": "function"
        },
        {
            "inputs": [
                {
                    "internalType": "uint256",
                    "name": "",
                    "type": "uint256"
                }
            ],
            "name": "studentAddressArray",
            "outputs": [
                {
                    "internalType": "address",
                    "name": "",
                    "type": "address"
                }
            ],
            "stateMutability": "view",
            "type": "function"
        },
        {
            "inputs": [
                {
                    "internalType": "bytes4",
                    "name": "interfaceId",
                    "type": "bytes4"
                }
            ],
            "name": "supportsInterface",
            "outputs": [
                {
                    "internalType": "bool",
                    "name": "",
                    "type": "bool"
                }
            ],
            "stateMutability": "view",
            "type": "function"
        },
        {
            "inputs": [
                {
                    "internalType": "uint256",
                    "name": "tokenId",
                    "type": "uint256"
                }
            ],
            "name": "uri",
            "outputs": [
                {
                    "internalType": "string",
                    "name": "",
                    "type": "string"
                }
            ],
            "stateMutability": "view",
            "type": "function"
        },
        {
            "inputs": [
                {
                    "internalType": "address",
                    "name": "_studentAddress",
                    "type": "address"
                }
            ],
            "name": "viewStudentToken",
            "outputs": [
                {
                    "internalType": "uint256",
                    "name": "",
                    "type": "uint256"
                }
            ],
            "stateMutability": "view",
            "type": "function"
        },
        {
            "inputs": [],
            "name": "viewStudents",
            "outputs": [
                {
                    "internalType": "address[]",
                    "name": "",
                    "type": "address[]"
                }
            ],
            "stateMutability": "view",
            "type": "function"
        }
    ],
    "bytecode": "0x60806040523480156200001157600080fd5b506040518060600160405280603a81526020016200333e603a91396200003d81620000ce60201b60201c565b5033600560006101000a81548173ffffffffffffffffffffffffffffffffffffffff021916908373ffffffffffffffffffffffffffffffffffffffff16021790555033600a60006101000a81548173ffffffffffffffffffffffffffffffffffffffff021916908373ffffffffffffffffffffffffffffffffffffffff1602179055506000600981905550620001ff565b8060029080519060200190620000e6929190620000ea565b5050565b828054620000f8906200019a565b90600052602060002090601f0160209004810192826200011c576000855562000168565b82601f106200013757805160ff191683800117855562000168565b8280016001018555821562000168579182015b82811115620001675782518255916020019190600101906200014a565b5b5090506200017791906200017b565b5090565b5b80821115620001965760008160009055506001016200017c565b5090565b60006002820490506001821680620001b357607f821691505b60208210811415620001ca57620001c9620001d0565b5b50919050565b7f4e487b7100000000000000000000000000000000000000000000000000000000600052602260045260246000fd5b61312f806200020f6000396000f3fe608060405234801561001057600080fd5b50600436106100ce5760003560e01c80634e1273f41161008c578063e985e9c511610066578063e985e9c514610235578063ec587a7914610265578063f242432a14610281578063f9920d5b1461029d576100ce565b80634e1273f4146101b9578063a22cb465146101e9578063a5b8075a14610205576100ce565b8062fdd58e146100d357806301ffc9a7146101035780630e89341c1461013357806315303643146101635780631b6c62651461017f5780632eb2c2d61461019d575b600080fd5b6100ed60048036038101906100e89190611fab565b6102cd565b6040516100fa91906127bb565b60405180910390f35b61011d60048036038101906101189190612063565b610396565b60405161012a91906125fe565b60405180910390f35b61014d600480360381019061014891906120bd565b610478565b60405161015a9190612619565b60405180910390f35b61017d600480360381019061017891906120ea565b61051d565b005b6101876106c7565b6040516101949190612583565b60405180910390f35b6101b760048036038101906101b29190611da9565b610755565b005b6101d360048036038101906101ce9190611feb565b6107f6565b6040516101e091906125a5565b60405180910390f35b61020360048036038101906101fe9190611f0f565b61090f565b005b61021f600480360381019061021a9190611d3c565b610925565b60405161022c91906127bb565b60405180910390f35b61024f600480360381019061024a9190611d69565b61096e565b60405161025c91906125fe565b60405180910390f35b61027f600480360381019061027a9190611f4f565b610a02565b005b61029b60048036038101906102969190611e78565b610a78565b005b6102b760048036038101906102b291906120bd565b610b19565b6040516102c491906124a6565b60405180910390f35b60008073ffffffffffffffffffffffffffffffffffffffff168373ffffffffffffffffffffffffffffffffffffffff16141561033e576040517f08c379a00000000000000000000000000000000000000000000000000000000081526004016103359061267b565b60405180910390fd5b60008083815260200190815260200160002060008473ffffffffffffffffffffffffffffffffffffffff1673ffffffffffffffffffffffffffffffffffffffff16815260200190815260200160002054905092915050565b60007fd9b67a26000000000000000000000000000000000000000000000000000000007bffffffffffffffffffffffffffffffffffffffffffffffffffffffff1916827bffffffffffffffffffffffffffffffffffffffffffffffffffffffff1916148061046157507f0e89341c000000000000000000000000000000000000000000000000000000007bffffffffffffffffffffffffffffffffffffffffffffffffffffffff1916827bffffffffffffffffffffffffffffffffffffffffffffffffffffffff1916145b80610471575061047082610b58565b5b9050919050565b606060036000838152602001908152602001600020805461049890612aa1565b80601f01602080910402602001604051908101604052809291908181526020018280546104c490612aa1565b80156105115780601f106104e657610100808354040283529160200191610511565b820191906000526020600020905b8154815290600101906020018083116104f457829003601f168201915b50505050509050919050565b3373ffffffffffffffffffffffffffffffffffffffff16600560009054906101000a900473ffffffffffffffffffffffffffffffffffffffff1673ffffffffffffffffffffffffffffffffffffffff16146105ad576040517f08c379a00000000000000000000000000000000000000000000000000000000081526004016105a49061271b565b60405180910390fd5b82600760008473ffffffffffffffffffffffffffffffffffffffff1673ffffffffffffffffffffffffffffffffffffffff16815260200190815260200160002060000160006101000a81548160ff021916908360ff16021790555080600760008473ffffffffffffffffffffffffffffffffffffffff1673ffffffffffffffffffffffffffffffffffffffff168152602001908152602001600020600101908051906020019061065e9291906119ff565b506008829080600181540180825580915050600190039060005260206000200160009091909190916101000a81548173ffffffffffffffffffffffffffffffffffffffff021916908373ffffffffffffffffffffffffffffffffffffffff160217905550505050565b6060600880548060200260200160405190810160405280929190818152602001828054801561074b57602002820191906000526020600020905b8160009054906101000a900473ffffffffffffffffffffffffffffffffffffffff1673ffffffffffffffffffffffffffffffffffffffff1681526020019060010190808311610701575b5050505050905090565b61075d610bc2565b73ffffffffffffffffffffffffffffffffffffffff168573ffffffffffffffffffffffffffffffffffffffff1614806107a357506107a28561079d610bc2565b61096e565b5b6107e2576040517f08c379a00000000000000000000000000000000000000000000000000000000081526004016107d9906126db565b60405180910390fd5b6107ef8585858585610bca565b5050505050565b6060815183511461083c576040517f08c379a00000000000000000000000000000000000000000000000000000000081526004016108339061275b565b60405180910390fd5b6000835167ffffffffffffffff81111561085957610858612bda565b5b6040519080825280602002602001820160405280156108875781602001602082028036833780820191505090505b50905060005b8451811015610904576108d48582815181106108ac576108ab612bab565b5b60200260200101518583815181106108c7576108c6612bab565b5b60200260200101516102cd565b8282815181106108e7576108e6612bab565b5b602002602001018181525050806108fd90612b04565b905061088d565b508091505092915050565b61092161091a610bc2565b8383610ede565b5050565b6000600660008373ffffffffffffffffffffffffffffffffffffffff1673ffffffffffffffffffffffffffffffffffffffff168152602001908152602001600020549050919050565b6000600160008473ffffffffffffffffffffffffffffffffffffffff1673ffffffffffffffffffffffffffffffffffffffff16815260200190815260200160002060008373ffffffffffffffffffffffffffffffffffffffff1673ffffffffffffffffffffffffffffffffffffffff16815260200190815260200160002060009054906101000a900460ff16905092915050565b60008060019050610a1784848360ff1661104b565b915081600660008673ffffffffffffffffffffffffffffffffffffffff1673ffffffffffffffffffffffffffffffffffffffff168152602001908152602001600020819055506001600954610a6c9190612988565b60098190555050505050565b610a80610bc2565b73ffffffffffffffffffffffffffffffffffffffff168573ffffffffffffffffffffffffffffffffffffffff161480610ac65750610ac585610ac0610bc2565b61096e565b5b610b05576040517f08c379a0000000000000000000000000000000000000000000000000000000008152600401610afc9061269b565b60405180910390fd5b610b128585858585611094565b5050505050565b60088181548110610b2957600080fd5b906000526020600020016000915054906101000a900473ffffffffffffffffffffffffffffffffffffffff1681565b60007f01ffc9a7000000000000000000000000000000000000000000000000000000007bffffffffffffffffffffffffffffffffffffffffffffffffffffffff1916827bffffffffffffffffffffffffffffffffffffffffffffffffffffffff1916149050919050565b600033905090565b8151835114610c0e576040517f08c379a0000000000000000000000000000000000000000000000000000000008152600401610c059061277b565b60405180910390fd5b600073ffffffffffffffffffffffffffffffffffffffff168473ffffffffffffffffffffffffffffffffffffffff161415610c7e576040517f08c379a0000000000000000000000000000000000000000000000000000000008152600401610c75906126bb565b60405180910390fd5b6000610c88610bc2565b9050610c98818787878787611316565b60005b8451811015610e49576000858281518110610cb957610cb8612bab565b5b602002602001015190506000858381518110610cd857610cd7612bab565b5b60200260200101519050600080600084815260200190815260200160002060008b73ffffffffffffffffffffffffffffffffffffffff1673ffffffffffffffffffffffffffffffffffffffff16815260200190815260200160002054905081811015610d79576040517f08c379a0000000000000000000000000000000000000000000000000000000008152600401610d70906126fb565b60405180910390fd5b81810360008085815260200190815260200160002060008c73ffffffffffffffffffffffffffffffffffffffff1673ffffffffffffffffffffffffffffffffffffffff168152602001908152602001600020819055508160008085815260200190815260200160002060008b73ffffffffffffffffffffffffffffffffffffffff1673ffffffffffffffffffffffffffffffffffffffff1681526020019081526020016000206000828254610e2e9190612988565b9250508190555050505080610e4290612b04565b9050610c9b565b508473ffffffffffffffffffffffffffffffffffffffff168673ffffffffffffffffffffffffffffffffffffffff168273ffffffffffffffffffffffffffffffffffffffff167f4a39dc06d4c0dbc64b70af90fd698a233a518aa5d07e595d983b8c0526c8f7fb8787604051610ec09291906125c7565b60405180910390a4610ed681878787878761131e565b505050505050565b8173ffffffffffffffffffffffffffffffffffffffff168373ffffffffffffffffffffffffffffffffffffffff161415610f4d576040517f08c379a0000000000000000000000000000000000000000000000000000000008152600401610f449061273b565b60405180910390fd5b80600160008573ffffffffffffffffffffffffffffffffffffffff1673ffffffffffffffffffffffffffffffffffffffff16815260200190815260200160002060008473ffffffffffffffffffffffffffffffffffffffff1673ffffffffffffffffffffffffffffffffffffffff16815260200190815260200160002060006101000a81548160ff0219169083151502179055508173ffffffffffffffffffffffffffffffffffffffff168373ffffffffffffffffffffffffffffffffffffffff167f17307eab39ab6107e8899845ad3d59bd9653f200f220920489ca2b5937696c318360405161103e91906125fe565b60405180910390a3505050565b6000806110586004611505565b905061107585828560405180602001604052806000815250611513565b61107f81856116a9565b6110896004611765565b809150509392505050565b600073ffffffffffffffffffffffffffffffffffffffff168473ffffffffffffffffffffffffffffffffffffffff161415611104576040517f08c379a00000000000000000000000000000000000000000000000000000000081526004016110fb906126bb565b60405180910390fd5b600061110e610bc2565b905061112e81878761111f8861177b565b6111288861177b565b87611316565b600080600086815260200190815260200160002060008873ffffffffffffffffffffffffffffffffffffffff1673ffffffffffffffffffffffffffffffffffffffff168152602001908152602001600020549050838110156111c5576040517f08c379a00000000000000000000000000000000000000000000000000000000081526004016111bc906126fb565b60405180910390fd5b83810360008087815260200190815260200160002060008973ffffffffffffffffffffffffffffffffffffffff1673ffffffffffffffffffffffffffffffffffffffff168152602001908152602001600020819055508360008087815260200190815260200160002060008873ffffffffffffffffffffffffffffffffffffffff1673ffffffffffffffffffffffffffffffffffffffff168152602001908152602001600020600082825461127a9190612988565b925050819055508573ffffffffffffffffffffffffffffffffffffffff168773ffffffffffffffffffffffffffffffffffffffff168373ffffffffffffffffffffffffffffffffffffffff167fc3d58168c5ae7397731d063d5bbf3d657854427343f4c083240f7aacaa2d0f6288886040516112f79291906127d6565b60405180910390a461130d8288888888886117f5565b50505050505050565b505050505050565b61133d8473ffffffffffffffffffffffffffffffffffffffff166119dc565b156114fd578373ffffffffffffffffffffffffffffffffffffffff1663bc197c8187878686866040518663ffffffff1660e01b81526004016113839594939291906124c1565b602060405180830381600087803b15801561139d57600080fd5b505af19250505080156113ce57506040513d601f19601f820116820180604052508101906113cb9190612090565b60015b611474576113da612c09565b806308c379a0141561143757506113ef612ff0565b806113fa5750611439565b806040517f08c379a000000000000000000000000000000000000000000000000000000000815260040161142e9190612619565b60405180910390fd5b505b6040517f08c379a000000000000000000000000000000000000000000000000000000000815260040161146b9061263b565b60405180910390fd5b63bc197c8160e01b7bffffffffffffffffffffffffffffffffffffffffffffffffffffffff1916817bffffffffffffffffffffffffffffffffffffffffffffffffffffffff1916146114fb576040517f08c379a00000000000000000000000000000000000000000000000000000000081526004016114f29061265b565b60405180910390fd5b505b505050505050565b600081600001549050919050565b600073ffffffffffffffffffffffffffffffffffffffff168473ffffffffffffffffffffffffffffffffffffffff161415611583576040517f08c379a000000000000000000000000000000000000000000000000000000000815260040161157a9061279b565b60405180910390fd5b600061158d610bc2565b90506115ae8160008761159f8861177b565b6115a88861177b565b87611316565b8260008086815260200190815260200160002060008773ffffffffffffffffffffffffffffffffffffffff1673ffffffffffffffffffffffffffffffffffffffff168152602001908152602001600020600082825461160d9190612988565b925050819055508473ffffffffffffffffffffffffffffffffffffffff16600073ffffffffffffffffffffffffffffffffffffffff168273ffffffffffffffffffffffffffffffffffffffff167fc3d58168c5ae7397731d063d5bbf3d657854427343f4c083240f7aacaa2d0f62878760405161168b9291906127d6565b60405180910390a46116a2816000878787876117f5565b5050505050565b3373ffffffffffffffffffffffffffffffffffffffff16600560009054906101000a900473ffffffffffffffffffffffffffffffffffffffff1673ffffffffffffffffffffffffffffffffffffffff1614611739576040517f08c379a00000000000000000000000000000000000000000000000000000000081526004016117309061271b565b60405180910390fd5b806003600084815260200190815260200160002090805190602001906117609291906119ff565b505050565b6001816000016000828254019250508190555050565b60606000600167ffffffffffffffff81111561179a57611799612bda565b5b6040519080825280602002602001820160405280156117c85781602001602082028036833780820191505090505b50905082816000815181106117e0576117df612bab565b5b60200260200101818152505080915050919050565b6118148473ffffffffffffffffffffffffffffffffffffffff166119dc565b156119d4578373ffffffffffffffffffffffffffffffffffffffff1663f23a6e6187878686866040518663ffffffff1660e01b815260040161185a959493929190612529565b602060405180830381600087803b15801561187457600080fd5b505af19250505080156118a557506040513d601f19601f820116820180604052508101906118a29190612090565b60015b61194b576118b1612c09565b806308c379a0141561190e57506118c6612ff0565b806118d15750611910565b806040517f08c379a00000000000000000000000000000000000000000000000000000000081526004016119059190612619565b60405180910390fd5b505b6040517f08c379a00000000000000000000000000000000000000000000000000000000081526004016119429061263b565b60405180910390fd5b63f23a6e6160e01b7bffffffffffffffffffffffffffffffffffffffffffffffffffffffff1916817bffffffffffffffffffffffffffffffffffffffffffffffffffffffff1916146119d2576040517f08c379a00000000000000000000000000000000000000000000000000000000081526004016119c99061265b565b60405180910390fd5b505b505050505050565b6000808273ffffffffffffffffffffffffffffffffffffffff163b119050919050565b828054611a0b90612aa1565b90600052602060002090601f016020900481019282611a2d5760008555611a74565b82601f10611a4657805160ff1916838001178555611a74565b82800160010185558215611a74579182015b82811115611a73578251825591602001919060010190611a58565b5b509050611a819190611a85565b5090565b5b80821115611a9e576000816000905550600101611a86565b5090565b6000611ab5611ab084612824565b6127ff565b90508083825260208201905082856020860282011115611ad857611ad7612c30565b5b60005b85811015611b085781611aee8882611c06565b845260208401935060208301925050600181019050611adb565b5050509392505050565b6000611b25611b2084612850565b6127ff565b90508083825260208201905082856020860282011115611b4857611b47612c30565b5b60005b85811015611b785781611b5e8882611d12565b845260208401935060208301925050600181019050611b4b565b5050509392505050565b6000611b95611b908461287c565b6127ff565b905082815260208101848484011115611bb157611bb0612c35565b5b611bbc848285612a5f565b509392505050565b6000611bd7611bd2846128ad565b6127ff565b905082815260208101848484011115611bf357611bf2612c35565b5b611bfe848285612a5f565b509392505050565b600081359050611c1581613086565b92915050565b600082601f830112611c3057611c2f612c2b565b5b8135611c40848260208601611aa2565b91505092915050565b600082601f830112611c5e57611c5d612c2b565b5b8135611c6e848260208601611b12565b91505092915050565b600081359050611c868161309d565b92915050565b600081359050611c9b816130b4565b92915050565b600081519050611cb0816130b4565b92915050565b600082601f830112611ccb57611cca612c2b565b5b8135611cdb848260208601611b82565b91505092915050565b600082601f830112611cf957611cf8612c2b565b5b8135611d09848260208601611bc4565b91505092915050565b600081359050611d21816130cb565b92915050565b600081359050611d36816130e2565b92915050565b600060208284031215611d5257611d51612c3f565b5b6000611d6084828501611c06565b91505092915050565b60008060408385031215611d8057611d7f612c3f565b5b6000611d8e85828601611c06565b9250506020611d9f85828601611c06565b9150509250929050565b600080600080600060a08688031215611dc557611dc4612c3f565b5b6000611dd388828901611c06565b9550506020611de488828901611c06565b945050604086013567ffffffffffffffff811115611e0557611e04612c3a565b5b611e1188828901611c49565b935050606086013567ffffffffffffffff811115611e3257611e31612c3a565b5b611e3e88828901611c49565b925050608086013567ffffffffffffffff811115611e5f57611e5e612c3a565b5b611e6b88828901611cb6565b9150509295509295909350565b600080600080600060a08688031215611e9457611e93612c3f565b5b6000611ea288828901611c06565b9550506020611eb388828901611c06565b9450506040611ec488828901611d12565b9350506060611ed588828901611d12565b925050608086013567ffffffffffffffff811115611ef657611ef5612c3a565b5b611f0288828901611cb6565b9150509295509295909350565b60008060408385031215611f2657611f25612c3f565b5b6000611f3485828601611c06565b9250506020611f4585828601611c77565b9150509250929050565b60008060408385031215611f6657611f65612c3f565b5b6000611f7485828601611c06565b925050602083013567ffffffffffffffff811115611f9557611f94612c3a565b5b611fa185828601611ce4565b9150509250929050565b60008060408385031215611fc257611fc1612c3f565b5b6000611fd085828601611c06565b9250506020611fe185828601611d12565b9150509250929050565b6000806040838503121561200257612001612c3f565b5b600083013567ffffffffffffffff8111156120205761201f612c3a565b5b61202c85828601611c1b565b925050602083013567ffffffffffffffff81111561204d5761204c612c3a565b5b61205985828601611c49565b9150509250929050565b60006020828403121561207957612078612c3f565b5b600061208784828501611c8c565b91505092915050565b6000602082840312156120a6576120a5612c3f565b5b60006120b484828501611ca1565b91505092915050565b6000602082840312156120d3576120d2612c3f565b5b60006120e184828501611d12565b91505092915050565b60008060006060848603121561210357612102612c3f565b5b600061211186828701611d27565b935050602061212286828701611c06565b925050604084013567ffffffffffffffff81111561214357612142612c3a565b5b61214f86828701611ce4565b9150509250925092565b60006121658383612189565b60208301905092915050565b600061217d8383612488565b60208301905092915050565b612192816129de565b82525050565b6121a1816129de565b82525050565b60006121b2826128fe565b6121bc8185612944565b93506121c7836128de565b8060005b838110156121f85781516121df8882612159565b97506121ea8361292a565b9250506001810190506121cb565b5085935050505092915050565b600061221082612909565b61221a8185612955565b9350612225836128ee565b8060005b8381101561225657815161223d8882612171565b975061224883612937565b925050600181019050612229565b5085935050505092915050565b61226c816129f0565b82525050565b600061227d82612914565b6122878185612966565b9350612297818560208601612a6e565b6122a081612c44565b840191505092915050565b60006122b68261291f565b6122c08185612977565b93506122d0818560208601612a6e565b6122d981612c44565b840191505092915050565b60006122f1603483612977565b91506122fc82612c62565b604082019050919050565b6000612314602883612977565b915061231f82612cb1565b604082019050919050565b6000612337602b83612977565b915061234282612d00565b604082019050919050565b600061235a602983612977565b915061236582612d4f565b604082019050919050565b600061237d602583612977565b915061238882612d9e565b604082019050919050565b60006123a0603283612977565b91506123ab82612ded565b604082019050919050565b60006123c3602a83612977565b91506123ce82612e3c565b604082019050919050565b60006123e6602083612977565b91506123f182612e8b565b602082019050919050565b6000612409602983612977565b915061241482612eb4565b604082019050919050565b600061242c602983612977565b915061243782612f03565b604082019050919050565b600061244f602883612977565b915061245a82612f52565b604082019050919050565b6000612472602183612977565b915061247d82612fa1565b604082019050919050565b61249181612a48565b82525050565b6124a081612a48565b82525050565b60006020820190506124bb6000830184612198565b92915050565b600060a0820190506124d66000830188612198565b6124e36020830187612198565b81810360408301526124f58186612205565b905081810360608301526125098185612205565b9050818103608083015261251d8184612272565b90509695505050505050565b600060a08201905061253e6000830188612198565b61254b6020830187612198565b6125586040830186612497565b6125656060830185612497565b81810360808301526125778184612272565b90509695505050505050565b6000602082019050818103600083015261259d81846121a7565b905092915050565b600060208201905081810360008301526125bf8184612205565b905092915050565b600060408201905081810360008301526125e18185612205565b905081810360208301526125f58184612205565b90509392505050565b60006020820190506126136000830184612263565b92915050565b6000602082019050818103600083015261263381846122ab565b905092915050565b60006020820190508181036000830152612654816122e4565b9050919050565b6000602082019050818103600083015261267481612307565b9050919050565b600060208201905081810360008301526126948161232a565b9050919050565b600060208201905081810360008301526126b48161234d565b9050919050565b600060208201905081810360008301526126d481612370565b9050919050565b600060208201905081810360008301526126f481612393565b9050919050565b60006020820190508181036000830152612714816123b6565b9050919050565b60006020820190508181036000830152612734816123d9565b9050919050565b60006020820190508181036000830152612754816123fc565b9050919050565b600060208201905081810360008301526127748161241f565b9050919050565b6000602082019050818103600083015261279481612442565b9050919050565b600060208201905081810360008301526127b481612465565b9050919050565b60006020820190506127d06000830184612497565b92915050565b60006040820190506127eb6000830185612497565b6127f86020830184612497565b9392505050565b600061280961281a565b90506128158282612ad3565b919050565b6000604051905090565b600067ffffffffffffffff82111561283f5761283e612bda565b5b602082029050602081019050919050565b600067ffffffffffffffff82111561286b5761286a612bda565b5b602082029050602081019050919050565b600067ffffffffffffffff82111561289757612896612bda565b5b6128a082612c44565b9050602081019050919050565b600067ffffffffffffffff8211156128c8576128c7612bda565b5b6128d182612c44565b9050602081019050919050565b6000819050602082019050919050565b6000819050602082019050919050565b600081519050919050565b600081519050919050565b600081519050919050565b600081519050919050565b6000602082019050919050565b6000602082019050919050565b600082825260208201905092915050565b600082825260208201905092915050565b600082825260208201905092915050565b600082825260208201905092915050565b600061299382612a48565b915061299e83612a48565b9250827fffffffffffffffffffffffffffffffffffffffffffffffffffffffffffffffff038211156129d3576129d2612b4d565b5b828201905092915050565b60006129e982612a28565b9050919050565b60008115159050919050565b60007fffffffff0000000000000000000000000000000000000000000000000000000082169050919050565b600073ffffffffffffffffffffffffffffffffffffffff82169050919050565b6000819050919050565b600060ff82169050919050565b82818337600083830152505050565b60005b83811015612a8c578082015181840152602081019050612a71565b83811115612a9b576000848401525b50505050565b60006002820490506001821680612ab957607f821691505b60208210811415612acd57612acc612b7c565b5b50919050565b612adc82612c44565b810181811067ffffffffffffffff82111715612afb57612afa612bda565b5b80604052505050565b6000612b0f82612a48565b91507fffffffffffffffffffffffffffffffffffffffffffffffffffffffffffffffff821415612b4257612b41612b4d565b5b600182019050919050565b7f4e487b7100000000000000000000000000000000000000000000000000000000600052601160045260246000fd5b7f4e487b7100000000000000000000000000000000000000000000000000000000600052602260045260246000fd5b7f4e487b7100000000000000000000000000000000000000000000000000000000600052603260045260246000fd5b7f4e487b7100000000000000000000000000000000000000000000000000000000600052604160045260246000fd5b600060033d1115612c285760046000803e612c25600051612c55565b90505b90565b600080fd5b600080fd5b600080fd5b600080fd5b600080fd5b6000601f19601f8301169050919050565b60008160e01c9050919050565b7f455243313135353a207472616e7366657220746f206e6f6e204552433131353560008201527f526563656976657220696d706c656d656e746572000000000000000000000000602082015250565b7f455243313135353a204552433131353552656365697665722072656a6563746560008201527f6420746f6b656e73000000000000000000000000000000000000000000000000602082015250565b7f455243313135353a2062616c616e636520717565727920666f7220746865207a60008201527f65726f2061646472657373000000000000000000000000000000000000000000602082015250565b7f455243313135353a2063616c6c6572206973206e6f74206f776e6572206e6f7260008201527f20617070726f7665640000000000000000000000000000000000000000000000602082015250565b7f455243313135353a207472616e7366657220746f20746865207a65726f20616460008201527f6472657373000000000000000000000000000000000000000000000000000000602082015250565b7f455243313135353a207472616e736665722063616c6c6572206973206e6f742060008201527f6f776e6572206e6f7220617070726f7665640000000000000000000000000000602082015250565b7f455243313135353a20696e73756666696369656e742062616c616e636520666f60008201527f72207472616e7366657200000000000000000000000000000000000000000000602082015250565b7f4f776e61626c653a2063616c6c6572206973206e6f7420746865206f776e6572600082015250565b7f455243313135353a2073657474696e6720617070726f76616c2073746174757360008201527f20666f722073656c660000000000000000000000000000000000000000000000602082015250565b7f455243313135353a206163636f756e747320616e6420696473206c656e67746860008201527f206d69736d617463680000000000000000000000000000000000000000000000602082015250565b7f455243313135353a2069647320616e6420616d6f756e7473206c656e6774682060008201527f6d69736d61746368000000000000000000000000000000000000000000000000602082015250565b7f455243313135353a206d696e7420746f20746865207a65726f2061646472657360008201527f7300000000000000000000000000000000000000000000000000000000000000602082015250565b600060443d101561300057613083565b61300861281a565b60043d036004823e80513d602482011167ffffffffffffffff82111715613030575050613083565b808201805167ffffffffffffffff81111561304e5750505050613083565b80602083010160043d03850181111561306b575050505050613083565b61307a82602001850186612ad3565b82955050505050505b90565b61308f816129de565b811461309a57600080fd5b50565b6130a6816129f0565b81146130b157600080fd5b50565b6130bd816129fc565b81146130c857600080fd5b50565b6130d481612a48565b81146130df57600080fd5b50565b6130eb81612a52565b81146130f657600080fd5b5056fea2646970667358221220cbfba64d253e9d4e6e2afd978fe0f5126f45db79d9c3fa36a95dcaee38248e5464736f6c63430008070033495f646f6e745f636172655f61626f75745f7468655f5552495f626563617573655f496d5f676f6e6e615f6368616e67655f69745f6c61746572",
    "linkReferences": {},
    "deployedLinkReferences": {}
}